{
  "_format": "hh-sol-artifact-1",
  "contractName": "NFT",
  "sourceName": "contracts/NFT.sol",
  "abi": [
    {
      "inputs": [],
      "stateMutability": "nonpayable",
      "type": "constructor"
    },
    {
      "anonymous": false,
      "inputs": [
        {
          "indexed": true,
          "internalType": "address",
          "name": "owner",
          "type": "address"
        },
        {
          "indexed": true,
          "internalType": "address",
          "name": "approved",
          "type": "address"
        },
        {
          "indexed": true,
          "internalType": "uint256",
          "name": "tokenId",
          "type": "uint256"
        }
      ],
      "name": "Approval",
      "type": "event"
    },
    {
      "anonymous": false,
      "inputs": [
        {
          "indexed": true,
          "internalType": "address",
          "name": "owner",
          "type": "address"
        },
        {
          "indexed": true,
          "internalType": "address",
          "name": "operator",
          "type": "address"
        },
        {
          "indexed": false,
          "internalType": "bool",
          "name": "approved",
          "type": "bool"
        }
      ],
      "name": "ApprovalForAll",
      "type": "event"
    },
    {
      "anonymous": false,
      "inputs": [
        {
          "indexed": true,
          "internalType": "address",
          "name": "from",
          "type": "address"
        },
        {
          "indexed": true,
          "internalType": "address",
          "name": "to",
          "type": "address"
        },
        {
          "indexed": true,
          "internalType": "uint256",
          "name": "tokenId",
          "type": "uint256"
        }
      ],
      "name": "Transfer",
      "type": "event"
    },
    {
      "inputs": [
        {
          "internalType": "address",
          "name": "to",
          "type": "address"
        },
        {
          "internalType": "uint256",
          "name": "tokenId",
          "type": "uint256"
        }
      ],
      "name": "approve",
      "outputs": [],
      "stateMutability": "nonpayable",
      "type": "function"
    },
    {
      "inputs": [
        {
          "internalType": "address",
          "name": "owner",
          "type": "address"
        }
      ],
      "name": "balanceOf",
      "outputs": [
        {
          "internalType": "uint256",
          "name": "",
          "type": "uint256"
        }
      ],
      "stateMutability": "view",
      "type": "function"
    },
    {
      "inputs": [],
      "name": "collectionName",
      "outputs": [
        {
          "internalType": "string",
          "name": "",
          "type": "string"
        }
      ],
      "stateMutability": "view",
      "type": "function"
    },
    {
      "inputs": [],
      "name": "collectionSymbol",
      "outputs": [
        {
          "internalType": "string",
          "name": "",
          "type": "string"
        }
      ],
      "stateMutability": "view",
      "type": "function"
    },
    {
      "inputs": [],
      "name": "createXolmerNFT",
      "outputs": [
        {
          "internalType": "uint256",
          "name": "",
          "type": "uint256"
        }
      ],
      "stateMutability": "nonpayable",
      "type": "function"
    },
    {
      "inputs": [
        {
          "internalType": "uint256",
          "name": "tokenId",
          "type": "uint256"
        }
      ],
      "name": "getApproved",
      "outputs": [
        {
          "internalType": "address",
          "name": "",
          "type": "address"
        }
      ],
      "stateMutability": "view",
      "type": "function"
    },
    {
      "inputs": [
        {
          "internalType": "address",
          "name": "owner",
          "type": "address"
        },
        {
          "internalType": "address",
          "name": "operator",
          "type": "address"
        }
      ],
      "name": "isApprovedForAll",
      "outputs": [
        {
          "internalType": "bool",
          "name": "",
          "type": "bool"
        }
      ],
      "stateMutability": "view",
      "type": "function"
    },
    {
      "inputs": [],
      "name": "name",
      "outputs": [
        {
          "internalType": "string",
          "name": "",
          "type": "string"
        }
      ],
      "stateMutability": "view",
      "type": "function"
    },
    {
      "inputs": [
        {
          "internalType": "uint256",
          "name": "tokenId",
          "type": "uint256"
        }
      ],
      "name": "ownerOf",
      "outputs": [
        {
          "internalType": "address",
          "name": "",
          "type": "address"
        }
      ],
      "stateMutability": "view",
      "type": "function"
    },
    {
      "inputs": [
        {
          "internalType": "uint256",
          "name": "tokenId",
          "type": "uint256"
        }
      ],
      "name": "pickFirstWord",
      "outputs": [
        {
          "internalType": "string",
          "name": "",
          "type": "string"
        }
      ],
      "stateMutability": "view",
      "type": "function"
    },
    {
      "inputs": [
        {
          "internalType": "uint256",
          "name": "tokenId",
          "type": "uint256"
        }
      ],
      "name": "pickSecondWord",
      "outputs": [
        {
          "internalType": "string",
          "name": "",
          "type": "string"
        }
      ],
      "stateMutability": "view",
      "type": "function"
    },
    {
      "inputs": [
        {
          "internalType": "uint256",
          "name": "tokenId",
          "type": "uint256"
        }
      ],
      "name": "pickThirdWord",
      "outputs": [
        {
          "internalType": "string",
          "name": "",
          "type": "string"
        }
      ],
      "stateMutability": "view",
      "type": "function"
    },
    {
      "inputs": [
        {
          "internalType": "address",
          "name": "from",
          "type": "address"
        },
        {
          "internalType": "address",
          "name": "to",
          "type": "address"
        },
        {
          "internalType": "uint256",
          "name": "tokenId",
          "type": "uint256"
        }
      ],
      "name": "safeTransferFrom",
      "outputs": [],
      "stateMutability": "nonpayable",
      "type": "function"
    },
    {
      "inputs": [
        {
          "internalType": "address",
          "name": "from",
          "type": "address"
        },
        {
          "internalType": "address",
          "name": "to",
          "type": "address"
        },
        {
          "internalType": "uint256",
          "name": "tokenId",
          "type": "uint256"
        },
        {
          "internalType": "bytes",
          "name": "data",
          "type": "bytes"
        }
      ],
      "name": "safeTransferFrom",
      "outputs": [],
      "stateMutability": "nonpayable",
      "type": "function"
    },
    {
      "inputs": [
        {
          "internalType": "address",
          "name": "operator",
          "type": "address"
        },
        {
          "internalType": "bool",
          "name": "approved",
          "type": "bool"
        }
      ],
      "name": "setApprovalForAll",
      "outputs": [],
      "stateMutability": "nonpayable",
      "type": "function"
    },
    {
      "inputs": [
        {
          "internalType": "bytes4",
          "name": "interfaceId",
          "type": "bytes4"
        }
      ],
      "name": "supportsInterface",
      "outputs": [
        {
          "internalType": "bool",
          "name": "",
          "type": "bool"
        }
      ],
      "stateMutability": "view",
      "type": "function"
    },
    {
      "inputs": [],
      "name": "symbol",
      "outputs": [
        {
          "internalType": "string",
          "name": "",
          "type": "string"
        }
      ],
      "stateMutability": "view",
      "type": "function"
    },
    {
      "inputs": [
        {
          "internalType": "uint256",
          "name": "tokenId",
          "type": "uint256"
        }
      ],
      "name": "tokenURI",
      "outputs": [
        {
          "internalType": "string",
          "name": "",
          "type": "string"
        }
      ],
      "stateMutability": "view",
      "type": "function"
    },
    {
      "inputs": [
        {
          "internalType": "address",
          "name": "from",
          "type": "address"
        },
        {
          "internalType": "address",
          "name": "to",
          "type": "address"
        },
        {
          "internalType": "uint256",
          "name": "tokenId",
          "type": "uint256"
        }
      ],
      "name": "transferFrom",
      "outputs": [],
      "stateMutability": "nonpayable",
      "type": "function"
    }
  ],
  "bytecode": "0x608060405260405180610160016040528061012f8152602001620041e761012f9139600a90805190602001906200003892919062000a63565b506040518061016001604052806040518060400160405280600581526020017f4964696f7400000000000000000000000000000000000000000000000000000081525081526020016040518060400160405280600481526020017f576973650000000000000000000000000000000000000000000000000000000081525081526020016040518060400160405280600a81526020017f43686976616c726f75730000000000000000000000000000000000000000000081525081526020016040518060400160405280600581526020017f4e6f626c6500000000000000000000000000000000000000000000000000000081525081526020016040518060400160405280600481526020017f4576696c0000000000000000000000000000000000000000000000000000000081525081526020016040518060400160405280600b81526020017f50726573746967696f757300000000000000000000000000000000000000000081525081526020016040518060400160405280600681526020017f5374726f6e67000000000000000000000000000000000000000000000000000081525081526020016040518060400160405280600481526020017f5765616b0000000000000000000000000000000000000000000000000000000081525081526020016040518060400160405280600781526020017f4c6f776c6966650000000000000000000000000000000000000000000000000081525081526020016040518060400160405280600581526020017f427261766500000000000000000000000000000000000000000000000000000081525081526020016040518060400160405280600781526020017f43756e6e696e6700000000000000000000000000000000000000000000000000815250815250600b90600b620002de92919062000af4565b506040518061016001604052806040518060400160405280600781526020017f4772756e696e650000000000000000000000000000000000000000000000000081525081526020016040518060400160405280600781526020017f44756e76696c610000000000000000000000000000000000000000000000000081525081526020016040518060400160405280600681526020017f506861726963000000000000000000000000000000000000000000000000000081525081526020016040518060400160405280600981526020017f416574756777616d6f000000000000000000000000000000000000000000000081525081526020016040518060400160405280600881526020017f4d797374656e696100000000000000000000000000000000000000000000000081525081526020016040518060400160405280600681526020017f556c79736e74000000000000000000000000000000000000000000000000000081525081526020016040518060400160405280600881526020017f456c7576656e657300000000000000000000000000000000000000000000000081525081526020016040518060400160405280600981526020017f4f6e73757475726f61000000000000000000000000000000000000000000000081525081526020016040518060400160405280600981526020017f4f6e73757475726f61000000000000000000000000000000000000000000000081525081526020016040518060400160405280600581526020017f416574697900000000000000000000000000000000000000000000000000000081525081526020016040518060400160405280600781526020017f47696c7572656100000000000000000000000000000000000000000000000000815250815250600c90600b6200058492919062000af4565b506040518061016001604052806040518060400160405280600781526020017f456d7065726f720000000000000000000000000000000000000000000000000081525081526020016040518060400160405280600481526020017f4b696e670000000000000000000000000000000000000000000000000000000081525081526020016040518060400160405280600581526020017f44656d6f6e00000000000000000000000000000000000000000000000000000081525081526020016040518060400160405280600381526020017f476f64000000000000000000000000000000000000000000000000000000000081525081526020016040518060400160405280600781526020017f57617272696f720000000000000000000000000000000000000000000000000081525081526020016040518060400160405280600481526020017f4d6167650000000000000000000000000000000000000000000000000000000081525081526020016040518060400160405280600681526020017f507269657374000000000000000000000000000000000000000000000000000081525081526020016040518060400160405280600681526020017f4b6e69676874000000000000000000000000000000000000000000000000000081525081526020016040518060400160405280600681526020017f57697a617264000000000000000000000000000000000000000000000000000081525081526020016040518060400160405280600581526020017f526f67756500000000000000000000000000000000000000000000000000000081525081526020016040518060400160405280600881526020017f536f726365726572000000000000000000000000000000000000000000000000815250815250600d90600b6200082a92919062000af4565b503480156200083857600080fd5b506040518060400160405280600981526020017f586f6c6d65724e465400000000000000000000000000000000000000000000008152506040518060400160405280600781526020017f584c4d524e4654000000000000000000000000000000000000000000000000008152508160009080519060200190620008bd92919062000a63565b508060019080519060200190620008d692919062000a63565b505050620008e96200092f60201b60201c565b600890805190602001906200090092919062000a63565b5062000911620009c960201b60201c565b600990805190602001906200092892919062000a63565b5062000c4d565b606060008054620009409062000be8565b80601f01602080910402602001604051908101604052809291908181526020018280546200096e9062000be8565b8015620009bf5780601f106200099357610100808354040283529160200191620009bf565b820191906000526020600020905b815481529060010190602001808311620009a157829003601f168201915b5050505050905090565b606060018054620009da9062000be8565b80601f016020809104026020016040519081016040528092919081815260200182805462000a089062000be8565b801562000a595780601f1062000a2d5761010080835404028352916020019162000a59565b820191906000526020600020905b81548152906001019060200180831162000a3b57829003601f168201915b5050505050905090565b82805462000a719062000be8565b90600052602060002090601f01602090048101928262000a95576000855562000ae1565b82601f1062000ab057805160ff191683800117855562000ae1565b8280016001018555821562000ae1579182015b8281111562000ae057825182559160200191906001019062000ac3565b5b50905062000af0919062000b5b565b5090565b82805482825590600052602060002090810192821562000b48579160200282015b8281111562000b4757825182908051906020019062000b3692919062000a63565b509160200191906001019062000b15565b5b50905062000b57919062000b7a565b5090565b5b8082111562000b7657600081600090555060010162000b5c565b5090565b5b8082111562000b9e576000818162000b94919062000ba2565b5060010162000b7b565b5090565b50805462000bb09062000be8565b6000825580601f1062000bc4575062000be5565b601f01602090049060005260206000209081019062000be4919062000b5b565b5b50565b6000600282049050600182168062000c0157607f821691505b6020821081141562000c185762000c1762000c1e565b5b50919050565b7f4e487b7100000000000000000000000000000000000000000000000000000000600052602260045260246000fd5b61358a8062000c5d6000396000f3fe608060405234801561001057600080fd5b50600436106101215760003560e01c806370a08231116100ad578063c87b56dd11610071578063c87b56dd1461032c578063e2d2c3081461035c578063e5326ab11461038c578063e551f558146103aa578063e985e9c5146103c857610121565b806370a082311461027657806395d89b41146102a6578063a22cb465146102c4578063b88d4fde146102e0578063c6303386146102fc57610121565b806323b872dd116100f457806323b872dd146101c05780632f39352a146101dc5780633bad0d36146101fa57806342842e0e1461022a5780636352211e1461024657610121565b806301ffc9a71461012657806306fdde0314610156578063081812fc14610174578063095ea7b3146101a4575b600080fd5b610140600480360381019061013b9190612378565b6103f8565b60405161014d91906129e7565b60405180910390f35b61015e6104da565b60405161016b9190612a02565b60405180910390f35b61018e600480360381019061018991906123ca565b61056c565b60405161019b9190612980565b60405180910390f35b6101be60048036038101906101b9919061233c565b6105b2565b005b6101da60048036038101906101d59190612236565b6106ca565b005b6101e461072a565b6040516101f19190612a02565b60405180910390f35b610214600480360381019061020f91906123ca565b6107b8565b6040516102219190612a02565b60405180910390f35b610244600480360381019061023f9190612236565b6108d6565b005b610260600480360381019061025b91906123ca565b6108f6565b60405161026d9190612980565b60405180910390f35b610290600480360381019061028b91906121d1565b6109a8565b60405161029d9190612ba4565b60405180910390f35b6102ae610a60565b6040516102bb9190612a02565b60405180910390f35b6102de60048036038101906102d99190612300565b610af2565b005b6102fa60048036038101906102f59190612285565b610b08565b005b610316600480360381019061031191906123ca565b610b6a565b6040516103239190612a02565b60405180910390f35b610346600480360381019061034191906123ca565b610c88565b6040516103539190612a02565b60405180910390f35b610376600480360381019061037191906123ca565b610d9b565b6040516103839190612a02565b60405180910390f35b610394610eb9565b6040516103a19190612a02565b60405180910390f35b6103b2610f47565b6040516103bf9190612ba4565b60405180910390f35b6103e260048036038101906103dd91906121fa565b611056565b6040516103ef91906129e7565b60405180910390f35b60007f80ac58cd000000000000000000000000000000000000000000000000000000007bffffffffffffffffffffffffffffffffffffffffffffffffffffffff1916827bffffffffffffffffffffffffffffffffffffffffffffffffffffffff191614806104c357507f5b5e139f000000000000000000000000000000000000000000000000000000007bffffffffffffffffffffffffffffffffffffffffffffffffffffffff1916827bffffffffffffffffffffffffffffffffffffffffffffffffffffffff1916145b806104d357506104d2826110ea565b5b9050919050565b6060600080546104e990612e38565b80601f016020809104026020016040519081016040528092919081815260200182805461051590612e38565b80156105625780601f1061053757610100808354040283529160200191610562565b820191906000526020600020905b81548152906001019060200180831161054557829003601f168201915b5050505050905090565b600061057782611154565b6004600083815260200190815260200160002060009054906101000a900473ffffffffffffffffffffffffffffffffffffffff169050919050565b60006105bd826108f6565b90508073ffffffffffffffffffffffffffffffffffffffff168373ffffffffffffffffffffffffffffffffffffffff16141561062e576040517f08c379a000000000000000000000000000000000000000000000000000000000815260040161062590612b64565b60405180910390fd5b8073ffffffffffffffffffffffffffffffffffffffff1661064d61119f565b73ffffffffffffffffffffffffffffffffffffffff16148061067c575061067b8161067661119f565b611056565b5b6106bb576040517f08c379a00000000000000000000000000000000000000000000000000000000081526004016106b290612b04565b60405180910390fd5b6106c583836111a7565b505050565b6106db6106d561119f565b82611260565b61071a576040517f08c379a000000000000000000000000000000000000000000000000000000000815260040161071190612b84565b60405180910390fd5b6107258383836112f5565b505050565b6009805461073790612e38565b80601f016020809104026020016040519081016040528092919081815260200182805461076390612e38565b80156107b05780601f10610785576101008083540402835291602001916107b0565b820191906000526020600020905b81548152906001019060200180831161079357829003601f168201915b505050505081565b606060006107ec6107c88461155c565b6040516020016107d891906128d5565b604051602081830303815290604052611709565b9050600b80549050816107ff9190612ee4565b9050600b818154811061083b577f4e487b7100000000000000000000000000000000000000000000000000000000600052603260045260246000fd5b90600052602060002001805461085090612e38565b80601f016020809104026020016040519081016040528092919081815260200182805461087c90612e38565b80156108c95780601f1061089e576101008083540402835291602001916108c9565b820191906000526020600020905b8154815290600101906020018083116108ac57829003601f168201915b5050505050915050919050565b6108f183838360405180602001604052806000815250610b08565b505050565b6000806002600084815260200190815260200160002060009054906101000a900473ffffffffffffffffffffffffffffffffffffffff169050600073ffffffffffffffffffffffffffffffffffffffff168173ffffffffffffffffffffffffffffffffffffffff16141561099f576040517f08c379a000000000000000000000000000000000000000000000000000000000815260040161099690612b44565b60405180910390fd5b80915050919050565b60008073ffffffffffffffffffffffffffffffffffffffff168273ffffffffffffffffffffffffffffffffffffffff161415610a19576040517f08c379a0000000000000000000000000000000000000000000000000000000008152600401610a1090612ac4565b60405180910390fd5b600360008373ffffffffffffffffffffffffffffffffffffffff1673ffffffffffffffffffffffffffffffffffffffff168152602001908152602001600020549050919050565b606060018054610a6f90612e38565b80601f0160208091040260200160405190810160405280929190818152602001828054610a9b90612e38565b8015610ae85780601f10610abd57610100808354040283529160200191610ae8565b820191906000526020600020905b815481529060010190602001808311610acb57829003601f168201915b5050505050905090565b610b04610afd61119f565b838361173c565b5050565b610b19610b1361119f565b83611260565b610b58576040517f08c379a0000000000000000000000000000000000000000000000000000000008152600401610b4f90612b84565b60405180910390fd5b610b64848484846118a9565b50505050565b60606000610b9e610b7a8461155c565b604051602001610b8a91906128b3565b604051602081830303815290604052611709565b9050600c8054905081610bb19190612ee4565b9050600c8181548110610bed577f4e487b7100000000000000000000000000000000000000000000000000000000600052603260045260246000fd5b906000526020600020018054610c0290612e38565b80601f0160208091040260200160405190810160405280929190818152602001828054610c2e90612e38565b8015610c7b5780601f10610c5057610100808354040283529160200191610c7b565b820191906000526020600020905b815481529060010190602001808311610c5e57829003601f168201915b5050505050915050919050565b6060610c9382611154565b6000600660008481526020019081526020016000208054610cb390612e38565b80601f0160208091040260200160405190810160405280929190818152602001828054610cdf90612e38565b8015610d2c5780601f10610d0157610100808354040283529160200191610d2c565b820191906000526020600020905b815481529060010190602001808311610d0f57829003601f168201915b505050505090506000610d3d611905565b9050600081511415610d53578192505050610d96565b600082511115610d88578082604051602001610d70929190612815565b60405160208183030381529060405292505050610d96565b610d918461191c565b925050505b919050565b60606000610dcf610dab8461155c565b604051602001610dbb919061295e565b604051602081830303815290604052611709565b9050600d8054905081610de29190612ee4565b9050600d8181548110610e1e577f4e487b7100000000000000000000000000000000000000000000000000000000600052603260045260246000fd5b906000526020600020018054610e3390612e38565b80601f0160208091040260200160405190810160405280929190818152602001828054610e5f90612e38565b8015610eac5780601f10610e8157610100808354040283529160200191610eac565b820191906000526020600020905b815481529060010190602001808311610e8f57829003601f168201915b5050505050915050919050565b60088054610ec690612e38565b80601f0160208091040260200160405190810160405280929190818152602001828054610ef290612e38565b8015610f3f5780601f10610f1457610100808354040283529160200191610f3f565b820191906000526020600020905b815481529060010190602001808311610f2257829003601f168201915b505050505081565b600080610f546007611984565b90506000610f61826107b8565b90506000610f6e83610b6a565b90506000610f7b84610d9b565b90506000838383604051602001610f9493929190612839565b60405160208183030381529060405290506000600a858585604051602001610fbf949392919061286a565b6040516020818303038152906040529050600061100483610fdf84611992565b604051602001610ff09291906128f7565b604051602081830303815290604052611992565b9050600081604051602001611019919061293c565b60405160208183030381529060405290506110343389611b50565b61103e8882611b6e565b6110486007611be2565b879850505050505050505090565b6000600560008473ffffffffffffffffffffffffffffffffffffffff1673ffffffffffffffffffffffffffffffffffffffff16815260200190815260200160002060008373ffffffffffffffffffffffffffffffffffffffff1673ffffffffffffffffffffffffffffffffffffffff16815260200190815260200160002060009054906101000a900460ff16905092915050565b60007f01ffc9a7000000000000000000000000000000000000000000000000000000007bffffffffffffffffffffffffffffffffffffffffffffffffffffffff1916827bffffffffffffffffffffffffffffffffffffffffffffffffffffffff1916149050919050565b61115d81611bf8565b61119c576040517f08c379a000000000000000000000000000000000000000000000000000000000815260040161119390612b44565b60405180910390fd5b50565b600033905090565b816004600083815260200190815260200160002060006101000a81548173ffffffffffffffffffffffffffffffffffffffff021916908373ffffffffffffffffffffffffffffffffffffffff160217905550808273ffffffffffffffffffffffffffffffffffffffff1661121a836108f6565b73ffffffffffffffffffffffffffffffffffffffff167f8c5be1e5ebec7d5bd14f71427d1e84f3dd0314c0f7b2291e5b200ac8c7c3b92560405160405180910390a45050565b60008061126c836108f6565b90508073ffffffffffffffffffffffffffffffffffffffff168473ffffffffffffffffffffffffffffffffffffffff1614806112ae57506112ad8185611056565b5b806112ec57508373ffffffffffffffffffffffffffffffffffffffff166112d48461056c565b73ffffffffffffffffffffffffffffffffffffffff16145b91505092915050565b8273ffffffffffffffffffffffffffffffffffffffff16611315826108f6565b73ffffffffffffffffffffffffffffffffffffffff161461136b576040517f08c379a000000000000000000000000000000000000000000000000000000000815260040161136290612a44565b60405180910390fd5b600073ffffffffffffffffffffffffffffffffffffffff168273ffffffffffffffffffffffffffffffffffffffff1614156113db576040517f08c379a00000000000000000000000000000000000000000000000000000000081526004016113d290612a84565b60405180910390fd5b6113e6838383611c64565b6113f16000826111a7565b6001600360008573ffffffffffffffffffffffffffffffffffffffff1673ffffffffffffffffffffffffffffffffffffffff16815260200190815260200160002060008282546114419190612d4e565b925050819055506001600360008473ffffffffffffffffffffffffffffffffffffffff1673ffffffffffffffffffffffffffffffffffffffff16815260200190815260200160002060008282546114989190612c6d565b92505081905550816002600083815260200190815260200160002060006101000a81548173ffffffffffffffffffffffffffffffffffffffff021916908373ffffffffffffffffffffffffffffffffffffffff160217905550808273ffffffffffffffffffffffffffffffffffffffff168473ffffffffffffffffffffffffffffffffffffffff167fddf252ad1be2c89b69c2b068fc378daa952ba7f163c4a11628f55a4df523b3ef60405160405180910390a4611557838383611c69565b505050565b606060008214156115a4576040518060400160405280600181526020017f30000000000000000000000000000000000000000000000000000000000000008152509050611704565b600082905060005b600082146115d65780806115bf90612e9b565b915050600a826115cf9190612cc3565b91506115ac565b60008167ffffffffffffffff811115611618577f4e487b7100000000000000000000000000000000000000000000000000000000600052604160045260246000fd5b6040519080825280601f01601f19166020018201604052801561164a5781602001600182028036833780820191505090505b5090505b600085146116fd576001826116639190612d4e565b9150600a856116729190612ee4565b603061167e9190612c6d565b60f81b8183815181106116ba577f4e487b7100000000000000000000000000000000000000000000000000000000600052603260045260246000fd5b60200101907effffffffffffffffffffffffffffffffffffffffffffffffffffffffffffff1916908160001a905350600a856116f69190612cc3565b945061164e565b8093505050505b919050565b60008160405160200161171c91906127fe565b6040516020818303038152906040528051906020012060001c9050919050565b8173ffffffffffffffffffffffffffffffffffffffff168373ffffffffffffffffffffffffffffffffffffffff1614156117ab576040517f08c379a00000000000000000000000000000000000000000000000000000000081526004016117a290612aa4565b60405180910390fd5b80600560008573ffffffffffffffffffffffffffffffffffffffff1673ffffffffffffffffffffffffffffffffffffffff16815260200190815260200160002060008473ffffffffffffffffffffffffffffffffffffffff1673ffffffffffffffffffffffffffffffffffffffff16815260200190815260200160002060006101000a81548160ff0219169083151502179055508173ffffffffffffffffffffffffffffffffffffffff168373ffffffffffffffffffffffffffffffffffffffff167f17307eab39ab6107e8899845ad3d59bd9653f200f220920489ca2b5937696c318360405161189c91906129e7565b60405180910390a3505050565b6118b48484846112f5565b6118c084848484611c6e565b6118ff576040517f08c379a00000000000000000000000000000000000000000000000000000000081526004016118f690612a24565b60405180910390fd5b50505050565b606060405180602001604052806000815250905090565b606061192782611154565b6000611931611905565b90506000815111611951576040518060200160405280600081525061197c565b8061195b8461155c565b60405160200161196c929190612815565b6040516020818303038152906040525b915050919050565b600081600001549050919050565b606060008251905060008114156119bb5760405180602001604052806000815250915050611b4b565b600060036002836119cc9190612c6d565b6119d69190612cc3565b60046119e29190612cf4565b905060006020826119f39190612c6d565b67ffffffffffffffff811115611a32577f4e487b7100000000000000000000000000000000000000000000000000000000600052604160045260246000fd5b6040519080825280601f01601f191660200182016040528015611a645781602001600182028036833780820191505090505b5090506000604051806060016040528060408152602001613515604091399050600181016020830160005b86811015611b085760038101905062ffffff818a015116603f8160121c168401518060081b905060ff603f83600c1c1686015116810190508060081b905060ff603f8360061c1686015116810190508060081b905060ff603f831686015116810190508060e01b90508084526004840193505050611a8f565b506003860660018114611b225760028114611b3257611b3d565b613d3d60f01b6002830352611b3d565b603d60f81b60018303525b508484525050819450505050505b919050565b611b6a828260405180602001604052806000815250611e05565b5050565b611b7782611bf8565b611bb6576040517f08c379a0000000000000000000000000000000000000000000000000000000008152600401611bad90612ae4565b60405180910390fd5b80600660008481526020019081526020016000209080519060200190611bdd92919061205d565b505050565b6001816000016000828254019250508190555050565b60008073ffffffffffffffffffffffffffffffffffffffff166002600084815260200190815260200160002060009054906101000a900473ffffffffffffffffffffffffffffffffffffffff1673ffffffffffffffffffffffffffffffffffffffff1614159050919050565b505050565b505050565b6000611c8f8473ffffffffffffffffffffffffffffffffffffffff16611e60565b15611df8578373ffffffffffffffffffffffffffffffffffffffff1663150b7a02611cb861119f565b8786866040518563ffffffff1660e01b8152600401611cda949392919061299b565b602060405180830381600087803b158015611cf457600080fd5b505af1925050508015611d2557506040513d601f19601f82011682018060405250810190611d2291906123a1565b60015b611da8573d8060008114611d55576040519150601f19603f3d011682016040523d82523d6000602084013e611d5a565b606091505b50600081511415611da0576040517f08c379a0000000000000000000000000000000000000000000000000000000008152600401611d9790612a24565b60405180910390fd5b805181602001fd5b63150b7a0260e01b7bffffffffffffffffffffffffffffffffffffffffffffffffffffffff1916817bffffffffffffffffffffffffffffffffffffffffffffffffffffffff191614915050611dfd565b600190505b949350505050565b611e0f8383611e83565b611e1c6000848484611c6e565b611e5b576040517f08c379a0000000000000000000000000000000000000000000000000000000008152600401611e5290612a24565b60405180910390fd5b505050565b6000808273ffffffffffffffffffffffffffffffffffffffff163b119050919050565b600073ffffffffffffffffffffffffffffffffffffffff168273ffffffffffffffffffffffffffffffffffffffff161415611ef3576040517f08c379a0000000000000000000000000000000000000000000000000000000008152600401611eea90612b24565b60405180910390fd5b611efc81611bf8565b15611f3c576040517f08c379a0000000000000000000000000000000000000000000000000000000008152600401611f3390612a64565b60405180910390fd5b611f4860008383611c64565b6001600360008473ffffffffffffffffffffffffffffffffffffffff1673ffffffffffffffffffffffffffffffffffffffff1681526020019081526020016000206000828254611f989190612c6d565b92505081905550816002600083815260200190815260200160002060006101000a81548173ffffffffffffffffffffffffffffffffffffffff021916908373ffffffffffffffffffffffffffffffffffffffff160217905550808273ffffffffffffffffffffffffffffffffffffffff16600073ffffffffffffffffffffffffffffffffffffffff167fddf252ad1be2c89b69c2b068fc378daa952ba7f163c4a11628f55a4df523b3ef60405160405180910390a461205960008383611c69565b5050565b82805461206990612e38565b90600052602060002090601f01602090048101928261208b57600085556120d2565b82601f106120a457805160ff19168380011785556120d2565b828001600101855582156120d2579182015b828111156120d15782518255916020019190600101906120b6565b5b5090506120df91906120e3565b5090565b5b808211156120fc5760008160009055506001016120e4565b5090565b600061211361210e84612be4565b612bbf565b90508281526020810184848401111561212b57600080fd5b612136848285612df6565b509392505050565b60008135905061214d816134b8565b92915050565b600081359050612162816134cf565b92915050565b600081359050612177816134e6565b92915050565b60008151905061218c816134e6565b92915050565b600082601f8301126121a357600080fd5b81356121b3848260208601612100565b91505092915050565b6000813590506121cb816134fd565b92915050565b6000602082840312156121e357600080fd5b60006121f18482850161213e565b91505092915050565b6000806040838503121561220d57600080fd5b600061221b8582860161213e565b925050602061222c8582860161213e565b9150509250929050565b60008060006060848603121561224b57600080fd5b60006122598682870161213e565b935050602061226a8682870161213e565b925050604061227b868287016121bc565b9150509250925092565b6000806000806080858703121561229b57600080fd5b60006122a98782880161213e565b94505060206122ba8782880161213e565b93505060406122cb878288016121bc565b925050606085013567ffffffffffffffff8111156122e857600080fd5b6122f487828801612192565b91505092959194509250565b6000806040838503121561231357600080fd5b60006123218582860161213e565b925050602061233285828601612153565b9150509250929050565b6000806040838503121561234f57600080fd5b600061235d8582860161213e565b925050602061236e858286016121bc565b9150509250929050565b60006020828403121561238a57600080fd5b600061239884828501612168565b91505092915050565b6000602082840312156123b357600080fd5b60006123c18482850161217d565b91505092915050565b6000602082840312156123dc57600080fd5b60006123ea848285016121bc565b91505092915050565b6123fc81612d82565b82525050565b61240b81612d94565b82525050565b600061241c82612c2a565b6124268185612c40565b9350612436818560208601612e05565b61243f81612fd1565b840191505092915050565b600061245582612c35565b61245f8185612c51565b935061246f818560208601612e05565b61247881612fd1565b840191505092915050565b600061248e82612c35565b6124988185612c62565b93506124a8818560208601612e05565b80840191505092915050565b600081546124c181612e38565b6124cb8186612c62565b945060018216600081146124e657600181146124f75761252a565b60ff1983168652818601935061252a565b61250085612c15565b60005b8381101561252257815481890152600182019150602081019050612503565b838801955050505b50505092915050565b6000612540600683612c62565b915061254b82612fe2565b600682019050919050565b6000612563600983612c62565b915061256e8261300b565b600982019050919050565b6000612586603283612c51565b915061259182613034565b604082019050919050565b60006125a9602583612c51565b91506125b482613083565b604082019050919050565b60006125cc601c83612c51565b91506125d7826130d2565b602082019050919050565b60006125ef602483612c51565b91506125fa826130fb565b604082019050919050565b6000612612601983612c51565b915061261d8261314a565b602082019050919050565b6000612635600d83612c62565b915061264082613173565b600d82019050919050565b6000612658602983612c51565b91506126638261319c565b604082019050919050565b600061267b602e83612c51565b9150612686826131eb565b604082019050919050565b600061269e600283612c62565b91506126a98261323a565b600282019050919050565b60006126c1603e83612c51565b91506126cc82613263565b604082019050919050565b60006126e4602083612c51565b91506126ef826132b2565b602082019050919050565b6000612707600a83612c62565b9150612712826132db565b600a82019050919050565b600061272a601883612c51565b915061273582613304565b602082019050919050565b600061274d602183612c51565b91506127588261332d565b604082019050919050565b6000612770601d83612c62565b915061277b8261337c565b601d82019050919050565b6000612793600583612c62565b915061279e826133a5565b600582019050919050565b60006127b6606883612c62565b91506127c1826133ce565b606882019050919050565b60006127d9602e83612c51565b91506127e482613469565b604082019050919050565b6127f881612dec565b82525050565b600061280a8284612483565b915081905092915050565b60006128218285612483565b915061282d8284612483565b91508190509392505050565b60006128458286612483565b91506128518285612483565b915061285d8284612483565b9150819050949350505050565b600061287682876124b4565b91506128828286612483565b915061288e8285612483565b915061289a8284612483565b91506128a582612628565b915081905095945050505050565b60006128be82612533565b91506128ca8284612483565b915081905092915050565b60006128e082612556565b91506128ec8284612483565b915081905092915050565b6000612902826126fa565b915061290e8285612483565b9150612919826127a9565b91506129258284612483565b915061293082612691565b91508190509392505050565b600061294782612763565b91506129538284612483565b915081905092915050565b600061296982612786565b91506129758284612483565b915081905092915050565b600060208201905061299560008301846123f3565b92915050565b60006080820190506129b060008301876123f3565b6129bd60208301866123f3565b6129ca60408301856127ef565b81810360608301526129dc8184612411565b905095945050505050565b60006020820190506129fc6000830184612402565b92915050565b60006020820190508181036000830152612a1c818461244a565b905092915050565b60006020820190508181036000830152612a3d81612579565b9050919050565b60006020820190508181036000830152612a5d8161259c565b9050919050565b60006020820190508181036000830152612a7d816125bf565b9050919050565b60006020820190508181036000830152612a9d816125e2565b9050919050565b60006020820190508181036000830152612abd81612605565b9050919050565b60006020820190508181036000830152612add8161264b565b9050919050565b60006020820190508181036000830152612afd8161266e565b9050919050565b60006020820190508181036000830152612b1d816126b4565b9050919050565b60006020820190508181036000830152612b3d816126d7565b9050919050565b60006020820190508181036000830152612b5d8161271d565b9050919050565b60006020820190508181036000830152612b7d81612740565b9050919050565b60006020820190508181036000830152612b9d816127cc565b9050919050565b6000602082019050612bb960008301846127ef565b92915050565b6000612bc9612bda565b9050612bd58282612e6a565b919050565b6000604051905090565b600067ffffffffffffffff821115612bff57612bfe612fa2565b5b612c0882612fd1565b9050602081019050919050565b60008190508160005260206000209050919050565b600081519050919050565b600081519050919050565b600082825260208201905092915050565b600082825260208201905092915050565b600081905092915050565b6000612c7882612dec565b9150612c8383612dec565b9250827fffffffffffffffffffffffffffffffffffffffffffffffffffffffffffffffff03821115612cb857612cb7612f15565b5b828201905092915050565b6000612cce82612dec565b9150612cd983612dec565b925082612ce957612ce8612f44565b5b828204905092915050565b6000612cff82612dec565b9150612d0a83612dec565b9250817fffffffffffffffffffffffffffffffffffffffffffffffffffffffffffffffff0483118215151615612d4357612d42612f15565b5b828202905092915050565b6000612d5982612dec565b9150612d6483612dec565b925082821015612d7757612d76612f15565b5b828203905092915050565b6000612d8d82612dcc565b9050919050565b60008115159050919050565b60007fffffffff0000000000000000000000000000000000000000000000000000000082169050919050565b600073ffffffffffffffffffffffffffffffffffffffff82169050919050565b6000819050919050565b82818337600083830152505050565b60005b83811015612e23578082015181840152602081019050612e08565b83811115612e32576000848401525b50505050565b60006002820490506001821680612e5057607f821691505b60208210811415612e6457612e63612f73565b5b50919050565b612e7382612fd1565b810181811067ffffffffffffffff82111715612e9257612e91612fa2565b5b80604052505050565b6000612ea682612dec565b91507fffffffffffffffffffffffffffffffffffffffffffffffffffffffffffffffff821415612ed957612ed8612f15565b5b600182019050919050565b6000612eef82612dec565b9150612efa83612dec565b925082612f0a57612f09612f44565b5b828206905092915050565b7f4e487b7100000000000000000000000000000000000000000000000000000000600052601160045260246000fd5b7f4e487b7100000000000000000000000000000000000000000000000000000000600052601260045260246000fd5b7f4e487b7100000000000000000000000000000000000000000000000000000000600052602260045260246000fd5b7f4e487b7100000000000000000000000000000000000000000000000000000000600052604160045260246000fd5b6000601f19601f8301169050919050565b7f726567696f6e0000000000000000000000000000000000000000000000000000600082015250565b7f61646a6563746976650000000000000000000000000000000000000000000000600082015250565b7f4552433732313a207472616e7366657220746f206e6f6e20455243373231526560008201527f63656976657220696d706c656d656e7465720000000000000000000000000000602082015250565b7f4552433732313a207472616e736665722066726f6d20696e636f72726563742060008201527f6f776e6572000000000000000000000000000000000000000000000000000000602082015250565b7f4552433732313a20746f6b656e20616c7265616479206d696e74656400000000600082015250565b7f4552433732313a207472616e7366657220746f20746865207a65726f2061646460008201527f7265737300000000000000000000000000000000000000000000000000000000602082015250565b7f4552433732313a20617070726f766520746f2063616c6c657200000000000000600082015250565b7f3c2f746578743e3c2f7376673e00000000000000000000000000000000000000600082015250565b7f4552433732313a2061646472657373207a65726f206973206e6f74206120766160008201527f6c6964206f776e65720000000000000000000000000000000000000000000000602082015250565b7f45524337323155524953746f726167653a2055524920736574206f66206e6f6e60008201527f6578697374656e7420746f6b656e000000000000000000000000000000000000602082015250565b7f227d000000000000000000000000000000000000000000000000000000000000600082015250565b7f4552433732313a20617070726f76652063616c6c6572206973206e6f7420746f60008201527f6b656e206f776e6572206e6f7220617070726f76656420666f7220616c6c0000602082015250565b7f4552433732313a206d696e7420746f20746865207a65726f2061646472657373600082015250565b7f7b226e616d65223a202200000000000000000000000000000000000000000000600082015250565b7f4552433732313a20696e76616c696420746f6b656e2049440000000000000000600082015250565b7f4552433732313a20617070726f76616c20746f2063757272656e74206f776e6560008201527f7200000000000000000000000000000000000000000000000000000000000000602082015250565b7f646174613a6170706c69636174696f6e2f6a736f6e3b6261736536342c000000600082015250565b7f7469746c65000000000000000000000000000000000000000000000000000000600082015250565b7f222c20226465736372697074696f6e223a20224120686967686c79206163636c60008201527f61696d656420636f6c6c656374696f6e20457465726e616c2057617272696f7260208201527f73222c2022696d616765223a2022646174613a696d6167652f7376672b786d6c60408201527f3b6261736536342c000000000000000000000000000000000000000000000000606082015250565b7f4552433732313a2063616c6c6572206973206e6f7420746f6b656e206f776e6560008201527f72206e6f7220617070726f766564000000000000000000000000000000000000602082015250565b6134c181612d82565b81146134cc57600080fd5b50565b6134d881612d94565b81146134e357600080fd5b50565b6134ef81612da0565b81146134fa57600080fd5b50565b61350681612dec565b811461351157600080fd5b5056fe4142434445464748494a4b4c4d4e4f505152535455565758595a6162636465666768696a6b6c6d6e6f707172737475767778797a303132333435363738392b2fa26469706673582212201b24f3444be1ef8325e06f74281fa4256126016cd0f7ab489a59067be9cea10964736f6c634300080100333c73766720786d6c6e733d27687474703a2f2f7777772e77332e6f72672f323030302f73766727207072657365727665417370656374526174696f3d27784d696e594d696e206d656574272076696577426f783d273020302033353020333530273e3c7374796c653e2e62617365207b2066696c6c3a2077686974653b20666f6e742d66616d696c793a2073657269663b20666f6e742d73697a653a20323470783b207d3c2f7374796c653e3c726563742077696474683d273130302527206865696768743d2731303025272066696c6c3d27626c61636b27202f3e3c7465787420783d273530252720793d273530252720636c6173733d27626173652720646f6d696e616e742d626173656c696e653d276d6964646c652720746578742d616e63686f723d276d6964646c65273e",
  "linkReferences": {},
  "deployedLinkReferences": {}
}